{
  "_format": "hh-sol-artifact-1",
  "contractName": "MultiSigWallet",
  "sourceName": "contracts/MultiSigWallet.sol",
  "abi": [
    {
      "inputs": [
        {
          "internalType": "address[]",
          "name": "_owners",
          "type": "address[]"
        },
        {
          "internalType": "uint256",
          "name": "_confirmationsRequired",
          "type": "uint256"
        }
      ],
      "stateMutability": "nonpayable",
      "type": "constructor"
    },
    {
      "stateMutability": "payable",
      "type": "fallback"
    },
    {
      "inputs": [
        {
          "internalType": "uint256",
          "name": "",
          "type": "uint256"
        }
      ],
      "name": "allTransactions",
      "outputs": [
        {
          "internalType": "address",
          "name": "recipient",
          "type": "address"
        },
        {
          "internalType": "uint256",
          "name": "value",
          "type": "uint256"
        },
        {
          "internalType": "bytes",
          "name": "data",
          "type": "bytes"
        },
        {
          "internalType": "bool",
          "name": "executed",
          "type": "bool"
        },
        {
          "internalType": "uint256",
          "name": "numberOfConfirmations",
          "type": "uint256"
        }
      ],
      "stateMutability": "view",
      "type": "function"
    },
    {
      "inputs": [
        {
          "internalType": "uint256",
          "name": "txId",
          "type": "uint256"
        }
      ],
      "name": "approve",
      "outputs": [
        {
          "internalType": "bool",
          "name": "",
          "type": "bool"
        }
      ],
      "stateMutability": "nonpayable",
      "type": "function"
    },
    {
      "inputs": [
        {
          "internalType": "address",
          "name": "",
          "type": "address"
        }
      ],
      "name": "checkOwners",
      "outputs": [
        {
          "internalType": "bool",
          "name": "",
          "type": "bool"
        }
      ],
      "stateMutability": "view",
      "type": "function"
    },
    {
      "inputs": [],
      "name": "confirmationsRequired",
      "outputs": [
        {
          "internalType": "uint256",
          "name": "",
          "type": "uint256"
        }
      ],
      "stateMutability": "view",
      "type": "function"
    },
    {
      "inputs": [
        {
          "internalType": "uint256",
          "name": "txId",
          "type": "uint256"
        }
      ],
      "name": "execute",
      "outputs": [
        {
          "internalType": "bool",
          "name": "",
          "type": "bool"
        }
      ],
      "stateMutability": "nonpayable",
      "type": "function"
    },
    {
      "inputs": [],
      "name": "getBalance",
      "outputs": [
        {
          "internalType": "uint256",
          "name": "",
          "type": "uint256"
        }
      ],
      "stateMutability": "view",
      "type": "function"
    },
    {
      "inputs": [],
      "name": "getConfirmationNumber",
      "outputs": [
        {
          "internalType": "uint256",
          "name": "",
          "type": "uint256"
        }
      ],
      "stateMutability": "view",
      "type": "function"
    },
    {
      "inputs": [],
      "name": "getLastTx",
      "outputs": [
        {
          "internalType": "address",
          "name": "",
          "type": "address"
        },
        {
          "internalType": "uint256",
          "name": "",
          "type": "uint256"
        },
        {
          "internalType": "bool",
          "name": "",
          "type": "bool"
        },
        {
          "internalType": "uint256",
          "name": "",
          "type": "uint256"
        }
      ],
      "stateMutability": "view",
      "type": "function"
    },
    {
      "inputs": [],
      "name": "getTxCount",
      "outputs": [
        {
          "internalType": "uint256",
          "name": "",
          "type": "uint256"
        }
      ],
      "stateMutability": "view",
      "type": "function"
    },
    {
      "inputs": [
        {
          "internalType": "uint256",
          "name": "txId",
          "type": "uint256"
        },
        {
          "internalType": "address",
          "name": "adrs",
          "type": "address"
        }
      ],
      "name": "getUserApproval",
      "outputs": [
        {
          "internalType": "bool",
          "name": "",
          "type": "bool"
        }
      ],
      "stateMutability": "view",
      "type": "function"
    },
    {
      "inputs": [],
      "name": "initiator",
      "outputs": [
        {
          "internalType": "address",
          "name": "",
          "type": "address"
        }
      ],
      "stateMutability": "view",
      "type": "function"
    },
    {
      "inputs": [
        {
          "internalType": "uint256",
          "name": "",
          "type": "uint256"
        }
      ],
      "name": "owners",
      "outputs": [
        {
          "internalType": "address",
          "name": "",
          "type": "address"
        }
      ],
      "stateMutability": "view",
      "type": "function"
    },
    {
      "inputs": [
        {
          "internalType": "uint256",
          "name": "txId",
          "type": "uint256"
        }
      ],
      "name": "revokeApproval",
      "outputs": [
        {
          "internalType": "bool",
          "name": "",
          "type": "bool"
        }
      ],
      "stateMutability": "nonpayable",
      "type": "function"
    },
    {
      "inputs": [
        {
          "internalType": "uint256",
          "name": "txId",
          "type": "uint256"
        }
      ],
      "name": "revokeTx",
      "outputs": [
        {
          "internalType": "bool",
          "name": "",
          "type": "bool"
        }
      ],
      "stateMutability": "nonpayable",
      "type": "function"
    },
    {
      "inputs": [
        {
          "internalType": "address",
          "name": "recipient",
          "type": "address"
        },
        {
          "internalType": "uint256",
          "name": "value",
          "type": "uint256"
        },
        {
          "internalType": "bytes",
          "name": "data",
          "type": "bytes"
        }
      ],
      "name": "submit",
      "outputs": [
        {
          "internalType": "bool",
          "name": "",
          "type": "bool"
        }
      ],
      "stateMutability": "nonpayable",
      "type": "function"
    },
    {
      "inputs": [
        {
          "internalType": "uint256",
          "name": "",
          "type": "uint256"
        },
        {
          "internalType": "address",
          "name": "",
          "type": "address"
        }
      ],
      "name": "transactionApprovals",
      "outputs": [
        {
          "internalType": "bool",
          "name": "",
          "type": "bool"
        }
      ],
      "stateMutability": "view",
      "type": "function"
    },
    {
      "stateMutability": "payable",
      "type": "receive"
    }
  ],
  "bytecode": "0x60806040523480156200001157600080fd5b5060405162002c4f38038062002c4f8339818101604052810190620000379190620005b4565b60008251116200007e576040517f08c379a000000000000000000000000000000000000000000000000000000000815260040162000075906200067b565b60405180910390fd5b6000811180156200008f5750815181105b620000d1576040517f08c379a0000000000000000000000000000000000000000000000000000000008152600401620000c890620006ed565b60405180910390fd5b80600381905550600080600090505b83518110156200038157600073ffffffffffffffffffffffffffffffffffffffff168482815181106200011857620001176200070f565b5b602002602001015173ffffffffffffffffffffffffffffffffffffffff1614156200017a576040517f08c379a000000000000000000000000000000000000000000000000000000000815260040162000171906200078e565b60405180910390fd5b83818151811062000190576200018f6200070f565b5b602002602001015191506000829080600181540180825580915050600190039060005260206000200160009091909190916101000a81548173ffffffffffffffffffffffffffffffffffffffff021916908373ffffffffffffffffffffffffffffffffffffffff16021790555060001515600260008084815481106200021b576200021a6200070f565b5b9060005260206000200160009054906101000a900473ffffffffffffffffffffffffffffffffffffffff1673ffffffffffffffffffffffffffffffffffffffff1673ffffffffffffffffffffffffffffffffffffffff16815260200190815260200160002060009054906101000a900460ff16151514620002d3576040517f08c379a0000000000000000000000000000000000000000000000000000000008152600401620002ca9062000800565b60405180910390fd5b600160026000808481548110620002ef57620002ee6200070f565b5b9060005260206000200160009054906101000a900473ffffffffffffffffffffffffffffffffffffffff1673ffffffffffffffffffffffffffffffffffffffff1673ffffffffffffffffffffffffffffffffffffffff16815260200190815260200160002060006101000a81548160ff0219169083151502179055508080620003789062000851565b915050620000e0565b505050506200089f565b6000604051905090565b600080fd5b600080fd5b600080fd5b6000601f19601f8301169050919050565b7f4e487b7100000000000000000000000000000000000000000000000000000000600052604160045260246000fd5b620003ef82620003a4565b810181811067ffffffffffffffff82111715620004115762000410620003b5565b5b80604052505050565b6000620004266200038b565b9050620004348282620003e4565b919050565b600067ffffffffffffffff821115620004575762000456620003b5565b5b602082029050602081019050919050565b600080fd5b600073ffffffffffffffffffffffffffffffffffffffff82169050919050565b60006200049a826200046d565b9050919050565b620004ac816200048d565b8114620004b857600080fd5b50565b600081519050620004cc81620004a1565b92915050565b6000620004e9620004e38462000439565b6200041a565b905080838252602082019050602084028301858111156200050f576200050e62000468565b5b835b818110156200053c5780620005278882620004bb565b84526020840193505060208101905062000511565b5050509392505050565b600082601f8301126200055e576200055d6200039f565b5b815162000570848260208601620004d2565b91505092915050565b6000819050919050565b6200058e8162000579565b81146200059a57600080fd5b50565b600081519050620005ae8162000583565b92915050565b60008060408385031215620005ce57620005cd62000395565b5b600083015167ffffffffffffffff811115620005ef57620005ee6200039a565b5b620005fd8582860162000546565b925050602062000610858286016200059d565b9150509250929050565b600082825260208201905092915050565b7f4e6f206f776e6572730000000000000000000000000000000000000000000000600082015250565b6000620006636009836200061a565b915062000670826200062b565b602082019050919050565b60006020820190508181036000830152620006968162000654565b9050919050565b7f696e76616c69646520636f6e6669726d7461696f6e73206e756d626572000000600082015250565b6000620006d5601d836200061a565b9150620006e2826200069d565b602082019050919050565b600060208201905081810360008301526200070881620006c6565b9050919050565b7f4e487b7100000000000000000000000000000000000000000000000000000000600052603260045260246000fd5b7f41646472657373206e756c6c0000000000000000000000000000000000000000600082015250565b600062000776600c836200061a565b915062000783826200073e565b602082019050919050565b60006020820190508181036000830152620007a98162000767565b9050919050565b7f4d75737420626520756e6971206f776e65727300000000000000000000000000600082015250565b6000620007e86013836200061a565b9150620007f582620007b0565b602082019050919050565b600060208201905081810360008301526200081b81620007d9565b9050919050565b7f4e487b7100000000000000000000000000000000000000000000000000000000600052601160045260246000fd5b60006200085e8262000579565b91507fffffffffffffffffffffffffffffffffffffffffffffffffffffffffffffffff82141562000894576200089362000822565b5b600182019050919050565b6123a080620008af6000396000f3fe6080604052600436106100f75760003560e01c8063a3bf06f11161008a578063d7ff071411610059578063d7ff071414610385578063e8b2c243146103c6578063fbfc0dc7146103f1578063fe0d94c11461042e576100fe565b8063a3bf06f1146102a3578063aec37819146102e0578063b1e130fc1461030b578063b759f95414610348576100fe565b80634860efb3116100c65780634860efb3146101d05780635986aaca1461020d5780635c39fcc11461024a5780638db053ef14610275576100fe565b8063025e7c271461010057806312065fe01461013d57806314de327f146101685780631dd46c1e146101a5576100fe565b366100fe57005b005b34801561010c57600080fd5b5061012760048036038101906101229190611819565b61046b565b6040516101349190611887565b60405180910390f35b34801561014957600080fd5b506101526104aa565b60405161015f91906118b1565b60405180910390f35b34801561017457600080fd5b5061018f600480360381019061018a919061195d565b6104b2565b60405161019c91906119ec565b60405180910390f35b3480156101b157600080fd5b506101ba610721565b6040516101c791906118b1565b60405180910390f35b3480156101dc57600080fd5b506101f760048036038101906101f29190611a07565b61072e565b60405161020491906119ec565b60405180910390f35b34801561021957600080fd5b50610234600480360381019061022f9190611819565b610796565b60405161024191906119ec565b60405180910390f35b34801561025657600080fd5b5061025f610baa565b60405161026c9190611887565b60405180910390f35b34801561028157600080fd5b5061028a610bd0565b60405161029a9493929190611a47565b60405180910390f35b3480156102af57600080fd5b506102ca60048036038101906102c59190611a8c565b610d9a565b6040516102d791906119ec565b60405180910390f35b3480156102ec57600080fd5b506102f5610dba565b60405161030291906118b1565b60405180910390f35b34801561031757600080fd5b50610332600480360381019061032d9190611819565b610dc4565b60405161033f91906119ec565b60405180910390f35b34801561035457600080fd5b5061036f600480360381019061036a9190611819565b61106b565b60405161037c91906119ec565b60405180910390f35b34801561039157600080fd5b506103ac60048036038101906103a79190611819565b611308565b6040516103bd959493929190611b52565b60405180910390f35b3480156103d257600080fd5b506103db611403565b6040516103e891906118b1565b60405180910390f35b3480156103fd57600080fd5b5061041860048036038101906104139190611a07565b611409565b60405161042591906119ec565b60405180910390f35b34801561043a57600080fd5b5061045560048036038101906104509190611819565b611438565b60405161046291906119ec565b60405180910390f35b6000818154811061047b57600080fd5b906000526020600020016000915054906101000a900473ffffffffffffffffffffffffffffffffffffffff1681565b600047905090565b600033600260008273ffffffffffffffffffffffffffffffffffffffff1673ffffffffffffffffffffffffffffffffffffffff16815260200190815260200160002060009054906101000a900460ff16610541576040517f08c379a000000000000000000000000000000000000000000000000000000000815260040161053890611c09565b60405180910390fd5b844711610583576040517f08c379a000000000000000000000000000000000000000000000000000000000815260040161057a90611c75565b60405180910390fd5b60006040518060a001604052808873ffffffffffffffffffffffffffffffffffffffff16815260200187815260200186868080601f016020809104026020016040519081016040528093929190818152602001838380828437600081840152601f19601f82011690508083019250505050505050815260200160001515815260200160008152509050600481908060018154018082558091505060019003906000526020600020906005020160009091909190915060008201518160000160006101000a81548173ffffffffffffffffffffffffffffffffffffffff021916908373ffffffffffffffffffffffffffffffffffffffff1602179055506020820151816001015560408201518160020190805190602001906106a59291906116f6565b5060608201518160030160006101000a81548160ff02191690831515021790555060808201518160040155505033600160006101000a81548173ffffffffffffffffffffffffffffffffffffffff021916908373ffffffffffffffffffffffffffffffffffffffff160217905550600192505050949350505050565b6000600480549050905090565b60006005600084815260200190815260200160002060008373ffffffffffffffffffffffffffffffffffffffff1673ffffffffffffffffffffffffffffffffffffffff16815260200190815260200160002060009054906101000a900460ff16905092915050565b600033600260008273ffffffffffffffffffffffffffffffffffffffff1673ffffffffffffffffffffffffffffffffffffffff16815260200190815260200160002060009054906101000a900460ff16610825576040517f08c379a000000000000000000000000000000000000000000000000000000000815260040161081c90611c09565b60405180910390fd5b826004818154811061083a57610839611c95565b5b906000526020600020906005020160030160009054906101000a900460ff1615610899576040517f08c379a000000000000000000000000000000000000000000000000000000000815260040161089090611d10565b60405180910390fd5b8360048054905081106108e1576040517f08c379a00000000000000000000000000000000000000000000000000000000081526004016108d890611d7c565b60405180910390fd5b60016004805490506108f39190611dcb565b8514610934576040517f08c379a000000000000000000000000000000000000000000000000000000000815260040161092b90611e4b565b60405180910390fd5b600015156004600160048054905061094c9190611dcb565b8154811061095d5761095c611c95565b5b906000526020600020906005020160030160009054906101000a900460ff161515146109be576040517f08c379a00000000000000000000000000000000000000000000000000000000081526004016109b590611eb7565b60405180910390fd5b600160009054906101000a900473ffffffffffffffffffffffffffffffffffffffff1673ffffffffffffffffffffffffffffffffffffffff163373ffffffffffffffffffffffffffffffffffffffff1614610a4e576040517f08c379a0000000000000000000000000000000000000000000000000000000008152600401610a4590611f49565b60405180910390fd5b6004805480610a6057610a5f611f69565b5b6001900381819060005260206000209060050201600080820160006101000a81549073ffffffffffffffffffffffffffffffffffffffff02191690556001820160009055600282016000610ab4919061177c565b6003820160006101000a81549060ff021916905560048201600090555050905560005b600080549050811015610b9d576000600560008881526020019081526020016000206000808481548110610b0e57610b0d611c95565b5b9060005260206000200160009054906101000a900473ffffffffffffffffffffffffffffffffffffffff1673ffffffffffffffffffffffffffffffffffffffff1673ffffffffffffffffffffffffffffffffffffffff16815260200190815260200160002060006101000a81548160ff0219169083151502179055508080610b9590611f98565b915050610ad7565b5060019350505050919050565b600160009054906101000a900473ffffffffffffffffffffffffffffffffffffffff1681565b600080600080600060048054905011610c1e576040517f08c379a0000000000000000000000000000000000000000000000000000000008152600401610c159061202d565b60405180910390fd5b600060046001600480549050610c349190611dcb565b81548110610c4557610c44611c95565b5b90600052602060002090600502016040518060a00160405290816000820160009054906101000a900473ffffffffffffffffffffffffffffffffffffffff1673ffffffffffffffffffffffffffffffffffffffff1673ffffffffffffffffffffffffffffffffffffffff16815260200160018201548152602001600282018054610cce9061207c565b80601f0160208091040260200160405190810160405280929190818152602001828054610cfa9061207c565b8015610d475780601f10610d1c57610100808354040283529160200191610d47565b820191906000526020600020905b815481529060010190602001808311610d2a57829003601f168201915b505050505081526020016003820160009054906101000a900460ff161515151581526020016004820154815250509050806000015181602001518260600151836080015194509450945094505090919293565b60026020528060005260406000206000915054906101000a900460ff1681565b6000600354905090565b600033600260008273ffffffffffffffffffffffffffffffffffffffff1673ffffffffffffffffffffffffffffffffffffffff16815260200190815260200160002060009054906101000a900460ff16610e53576040517f08c379a0000000000000000000000000000000000000000000000000000000008152600401610e4a90611c09565b60405180910390fd5b8260048181548110610e6857610e67611c95565b5b906000526020600020906005020160030160009054906101000a900460ff1615610ec7576040517f08c379a0000000000000000000000000000000000000000000000000000000008152600401610ebe90611d10565b60405180910390fd5b836004805490508110610f0f576040517f08c379a0000000000000000000000000000000000000000000000000000000008152600401610f0690611d7c565b60405180910390fd5b600060048681548110610f2557610f24611c95565b5b90600052602060002090600502019050600115156005600088815260200190815260200160002060003373ffffffffffffffffffffffffffffffffffffffff1673ffffffffffffffffffffffffffffffffffffffff16815260200190815260200160002060009054906101000a900460ff16151514610fd9576040517f08c379a0000000000000000000000000000000000000000000000000000000008152600401610fd0906120fa565b60405180910390fd5b6001816004016000828254610fee9190611dcb565b9250508190555060006005600088815260200190815260200160002060003373ffffffffffffffffffffffffffffffffffffffff1673ffffffffffffffffffffffffffffffffffffffff16815260200190815260200160002060006101000a81548160ff0219169083151502179055506001945050505050919050565b600033600260008273ffffffffffffffffffffffffffffffffffffffff1673ffffffffffffffffffffffffffffffffffffffff16815260200190815260200160002060009054906101000a900460ff166110fa576040517f08c379a00000000000000000000000000000000000000000000000000000000081526004016110f190611c09565b60405180910390fd5b826004818154811061110f5761110e611c95565b5b906000526020600020906005020160030160009054906101000a900460ff161561116e576040517f08c379a000000000000000000000000000000000000000000000000000000000815260040161116590611d10565b60405180910390fd5b8360048054905081106111b6576040517f08c379a00000000000000000000000000000000000000000000000000000000081526004016111ad90611d7c565b60405180910390fd5b846005600082815260200190815260200160002060003373ffffffffffffffffffffffffffffffffffffffff1673ffffffffffffffffffffffffffffffffffffffff16815260200190815260200160002060009054906101000a900460ff1615611255576040517f08c379a000000000000000000000000000000000000000000000000000000000815260040161124c90612166565b60405180910390fd5b60016004878154811061126b5761126a611c95565b5b9060005260206000209060050201600401600082825461128b9190612186565b9250508190555060016005600088815260200190815260200160002060003373ffffffffffffffffffffffffffffffffffffffff1673ffffffffffffffffffffffffffffffffffffffff16815260200190815260200160002060006101000a81548160ff0219169083151502179055506001945050505050919050565b6004818154811061131857600080fd5b90600052602060002090600502016000915090508060000160009054906101000a900473ffffffffffffffffffffffffffffffffffffffff16908060010154908060020180546113679061207c565b80601f01602080910402602001604051908101604052809291908181526020018280546113939061207c565b80156113e05780601f106113b5576101008083540402835291602001916113e0565b820191906000526020600020905b8154815290600101906020018083116113c357829003601f168201915b5050505050908060030160009054906101000a900460ff16908060040154905085565b60035481565b60056020528160005260406000206020528060005260406000206000915091509054906101000a900460ff1681565b600033600260008273ffffffffffffffffffffffffffffffffffffffff1673ffffffffffffffffffffffffffffffffffffffff16815260200190815260200160002060009054906101000a900460ff166114c7576040517f08c379a00000000000000000000000000000000000000000000000000000000081526004016114be90611c09565b60405180910390fd5b82600481815481106114dc576114db611c95565b5b906000526020600020906005020160030160009054906101000a900460ff161561153b576040517f08c379a000000000000000000000000000000000000000000000000000000000815260040161153290611d10565b60405180910390fd5b836004805490508110611583576040517f08c379a000000000000000000000000000000000000000000000000000000000815260040161157a90611d7c565b60405180910390fd5b60006004868154811061159957611598611c95565b5b90600052602060002090600502019050600354816004015410156115f2576040517f08c379a00000000000000000000000000000000000000000000000000000000081526004016115e990612228565b60405180910390fd5b60018160030160006101000a81548160ff02191690831515021790555060008160000160009054906101000a900473ffffffffffffffffffffffffffffffffffffffff1673ffffffffffffffffffffffffffffffffffffffff1682600101548360020160405161166291906122e7565b60006040518083038185875af1925050503d806000811461169f576040519150601f19603f3d011682016040523d82523d6000602084013e6116a4565b606091505b50509050806116e8576040517f08c379a00000000000000000000000000000000000000000000000000000000081526004016116df9061234a565b60405180910390fd5b600195505050505050919050565b8280546117029061207c565b90600052602060002090601f016020900481019282611724576000855561176b565b82601f1061173d57805160ff191683800117855561176b565b8280016001018555821561176b579182015b8281111561176a57825182559160200191906001019061174f565b5b50905061177891906117bc565b5090565b5080546117889061207c565b6000825580601f1061179a57506117b9565b601f0160209004906000526020600020908101906117b891906117bc565b5b50565b5b808211156117d55760008160009055506001016117bd565b5090565b600080fd5b600080fd5b6000819050919050565b6117f6816117e3565b811461180157600080fd5b50565b600081359050611813816117ed565b92915050565b60006020828403121561182f5761182e6117d9565b5b600061183d84828501611804565b91505092915050565b600073ffffffffffffffffffffffffffffffffffffffff82169050919050565b600061187182611846565b9050919050565b61188181611866565b82525050565b600060208201905061189c6000830184611878565b92915050565b6118ab816117e3565b82525050565b60006020820190506118c660008301846118a2565b92915050565b6118d581611866565b81146118e057600080fd5b50565b6000813590506118f2816118cc565b92915050565b600080fd5b600080fd5b600080fd5b60008083601f84011261191d5761191c6118f8565b5b8235905067ffffffffffffffff81111561193a576119396118fd565b5b60208301915083600182028301111561195657611955611902565b5b9250929050565b60008060008060608587031215611977576119766117d9565b5b6000611985878288016118e3565b945050602061199687828801611804565b935050604085013567ffffffffffffffff8111156119b7576119b66117de565b5b6119c387828801611907565b925092505092959194509250565b60008115159050919050565b6119e6816119d1565b82525050565b6000602082019050611a0160008301846119dd565b92915050565b60008060408385031215611a1e57611a1d6117d9565b5b6000611a2c85828601611804565b9250506020611a3d858286016118e3565b9150509250929050565b6000608082019050611a5c6000830187611878565b611a6960208301866118a2565b611a7660408301856119dd565b611a8360608301846118a2565b95945050505050565b600060208284031215611aa257611aa16117d9565b5b6000611ab0848285016118e3565b91505092915050565b600081519050919050565b600082825260208201905092915050565b60005b83811015611af3578082015181840152602081019050611ad8565b83811115611b02576000848401525b50505050565b6000601f19601f8301169050919050565b6000611b2482611ab9565b611b2e8185611ac4565b9350611b3e818560208601611ad5565b611b4781611b08565b840191505092915050565b600060a082019050611b676000830188611878565b611b7460208301876118a2565b8181036040830152611b868186611b19565b9050611b9560608301856119dd565b611ba260808301846118a2565b9695505050505050565b600082825260208201905092915050565b7f4e6f7420746865206f776e657200000000000000000000000000000000000000600082015250565b6000611bf3600d83611bac565b9150611bfe82611bbd565b602082019050919050565b60006020820190508181036000830152611c2281611be6565b9050919050565b7f4e6f7420656e6f75676820746f6b656e7320746f206578747261637400000000600082015250565b6000611c5f601c83611bac565b9150611c6a82611c29565b602082019050919050565b60006020820190508181036000830152611c8e81611c52565b9050919050565b7f4e487b7100000000000000000000000000000000000000000000000000000000600052603260045260246000fd5b7f747820616c726561647920657865637574656400000000000000000000000000600082015250565b6000611cfa601383611bac565b9150611d0582611cc4565b602082019050919050565b60006020820190508181036000830152611d2981611ced565b9050919050565b7f747820646f6573206e6f74206578697374730000000000000000000000000000600082015250565b6000611d66601283611bac565b9150611d7182611d30565b602082019050919050565b60006020820190508181036000830152611d9581611d59565b9050919050565b7f4e487b7100000000000000000000000000000000000000000000000000000000600052601160045260246000fd5b6000611dd6826117e3565b9150611de1836117e3565b925082821015611df457611df3611d9c565b5b828203905092915050565b7f7478206d75737420626520746865206c617374206f6e65000000000000000000600082015250565b6000611e35601783611bac565b9150611e4082611dff565b602082019050919050565b60006020820190508181036000830152611e6481611e28565b9050919050565b7f547820616c726561647920657865637574656400000000000000000000000000600082015250565b6000611ea1601383611bac565b9150611eac82611e6b565b602082019050919050565b60006020820190508181036000830152611ed081611e94565b9050919050565b7f74686520696e69746961746f722063616e207265766f6b65207375626d69736960008201527f6f6e000000000000000000000000000000000000000000000000000000000000602082015250565b6000611f33602283611bac565b9150611f3e82611ed7565b604082019050919050565b60006020820190508181036000830152611f6281611f26565b9050919050565b7f4e487b7100000000000000000000000000000000000000000000000000000000600052603160045260246000fd5b6000611fa3826117e3565b91507fffffffffffffffffffffffffffffffffffffffffffffffffffffffffffffffff821415611fd657611fd5611d9c565b5b600182019050919050565b7f4e6f20747820736f206661720000000000000000000000000000000000000000600082015250565b6000612017600c83611bac565b915061202282611fe1565b602082019050919050565b600060208201905081810360008301526120468161200a565b9050919050565b7f4e487b7100000000000000000000000000000000000000000000000000000000600052602260045260246000fd5b6000600282049050600182168061209457607f821691505b602082108114156120a8576120a761204d565b5b50919050565b7f7478206e6f7420617070726f7665640000000000000000000000000000000000600082015250565b60006120e4600f83611bac565b91506120ef826120ae565b602082019050919050565b60006020820190508181036000830152612113816120d7565b9050919050565b7f747820616c726561647920636f6e6669726d6564000000000000000000000000600082015250565b6000612150601483611bac565b915061215b8261211a565b602082019050919050565b6000602082019050818103600083015261217f81612143565b9050919050565b6000612191826117e3565b915061219c836117e3565b9250827fffffffffffffffffffffffffffffffffffffffffffffffffffffffffffffffff038211156121d1576121d0611d9c565b5b828201905092915050565b7f4e6f7420656e6f75676820636f6e6669726d6174696f6e730000000000000000600082015250565b6000612212601883611bac565b915061221d826121dc565b602082019050919050565b6000602082019050818103600083015261224181612205565b9050919050565b600081905092915050565b60008190508160005260206000209050919050565b600081546122758161207c565b61227f8186612248565b9450600182166000811461229a57600181146122ab576122de565b60ff198316865281860193506122de565b6122b485612253565b60005b838110156122d6578154818901526001820191506020810190506122b7565b838801955050505b50505092915050565b60006122f38284612268565b915081905092915050565b7f5472616e73616374696f6e207265766572746564000000000000000000000000600082015250565b6000612334601483611bac565b915061233f826122fe565b602082019050919050565b6000602082019050818103600083015261236381612327565b905091905056fea26469706673582212204a5e9537f669d865d1c9c124d5b6d6a9380e4c9c522ae45778a13c5f7c3d88dc64736f6c634300080b0033",
  "linkReferences": {},
  "deployedLinkReferences": {}
}