{
  "_format": "hh-sol-artifact-1",
  "contractName": "Modifiers",
  "sourceName": "contracts/Modifiers.sol",
  "abi": [
    {
      "inputs": [
        {
          "internalType": "uint256",
          "name": "",
          "type": "uint256"
        }
      ],
      "name": "allTransactions",
      "outputs": [
        {
          "internalType": "address",
          "name": "recipient",
          "type": "address"
        },
        {
          "internalType": "uint256",
          "name": "value",
          "type": "uint256"
        },
        {
          "internalType": "bytes",
          "name": "data",
          "type": "bytes"
        },
        {
          "internalType": "bool",
          "name": "executed",
          "type": "bool"
        },
        {
          "internalType": "uint256",
          "name": "numberOfConfirmations",
          "type": "uint256"
        }
      ],
      "stateMutability": "view",
      "type": "function"
    },
    {
      "inputs": [
        {
          "internalType": "address",
          "name": "",
          "type": "address"
        }
      ],
      "name": "checkOwners",
      "outputs": [
        {
          "internalType": "bool",
          "name": "",
          "type": "bool"
        }
      ],
      "stateMutability": "view",
      "type": "function"
    },
    {
      "inputs": [],
      "name": "confirmationsRequired",
      "outputs": [
        {
          "internalType": "uint256",
          "name": "",
          "type": "uint256"
        }
      ],
      "stateMutability": "view",
      "type": "function"
    },
    {
      "inputs": [],
      "name": "initiator",
      "outputs": [
        {
          "internalType": "address",
          "name": "",
          "type": "address"
        }
      ],
      "stateMutability": "view",
      "type": "function"
    },
    {
      "inputs": [
        {
          "internalType": "uint256",
          "name": "",
          "type": "uint256"
        }
      ],
      "name": "owners",
      "outputs": [
        {
          "internalType": "address",
          "name": "",
          "type": "address"
        }
      ],
      "stateMutability": "view",
      "type": "function"
    },
    {
      "inputs": [
        {
          "internalType": "uint256",
          "name": "",
          "type": "uint256"
        },
        {
          "internalType": "address",
          "name": "",
          "type": "address"
        }
      ],
      "name": "transactionApprovals",
      "outputs": [
        {
          "internalType": "bool",
          "name": "",
          "type": "bool"
        }
      ],
      "stateMutability": "view",
      "type": "function"
    }
  ],
  "bytecode": "0x608060405234801561001057600080fd5b50610663806100206000396000f3fe608060405234801561001057600080fd5b50600436106100625760003560e01c8063025e7c27146100675780635c39fcc114610097578063a3bf06f1146100b5578063d7ff0714146100e5578063e8b2c24314610119578063fbfc0dc714610137575b600080fd5b610081600480360381019061007c9190610357565b610167565b60405161008e91906103c5565b60405180910390f35b61009f6101a6565b6040516100ac91906103c5565b60405180910390f35b6100cf60048036038101906100ca919061040c565b6101cc565b6040516100dc9190610454565b60405180910390f35b6100ff60048036038101906100fa9190610357565b6101ec565b604051610110959493929190610517565b60405180910390f35b6101216102e7565b60405161012e9190610571565b60405180910390f35b610151600480360381019061014c919061058c565b6102ed565b60405161015e9190610454565b60405180910390f35b6000818154811061017757600080fd5b906000526020600020016000915054906101000a900473ffffffffffffffffffffffffffffffffffffffff1681565b600160009054906101000a900473ffffffffffffffffffffffffffffffffffffffff1681565b60026020528060005260406000206000915054906101000a900460ff1681565b600481815481106101fc57600080fd5b90600052602060002090600502016000915090508060000160009054906101000a900473ffffffffffffffffffffffffffffffffffffffff169080600101549080600201805461024b906105fb565b80601f0160208091040260200160405190810160405280929190818152602001828054610277906105fb565b80156102c45780601f10610299576101008083540402835291602001916102c4565b820191906000526020600020905b8154815290600101906020018083116102a757829003601f168201915b5050505050908060030160009054906101000a900460ff16908060040154905085565b60035481565b60056020528160005260406000206020528060005260406000206000915091509054906101000a900460ff1681565b600080fd5b6000819050919050565b61033481610321565b811461033f57600080fd5b50565b6000813590506103518161032b565b92915050565b60006020828403121561036d5761036c61031c565b5b600061037b84828501610342565b91505092915050565b600073ffffffffffffffffffffffffffffffffffffffff82169050919050565b60006103af82610384565b9050919050565b6103bf816103a4565b82525050565b60006020820190506103da60008301846103b6565b92915050565b6103e9816103a4565b81146103f457600080fd5b50565b600081359050610406816103e0565b92915050565b6000602082840312156104225761042161031c565b5b6000610430848285016103f7565b91505092915050565b60008115159050919050565b61044e81610439565b82525050565b60006020820190506104696000830184610445565b92915050565b61047881610321565b82525050565b600081519050919050565b600082825260208201905092915050565b60005b838110156104b857808201518184015260208101905061049d565b838111156104c7576000848401525b50505050565b6000601f19601f8301169050919050565b60006104e98261047e565b6104f38185610489565b935061050381856020860161049a565b61050c816104cd565b840191505092915050565b600060a08201905061052c60008301886103b6565b610539602083018761046f565b818103604083015261054b81866104de565b905061055a6060830185610445565b610567608083018461046f565b9695505050505050565b6000602082019050610586600083018461046f565b92915050565b600080604083850312156105a3576105a261031c565b5b60006105b185828601610342565b92505060206105c2858286016103f7565b9150509250929050565b7f4e487b7100000000000000000000000000000000000000000000000000000000600052602260045260246000fd5b6000600282049050600182168061061357607f821691505b60208210811415610627576106266105cc565b5b5091905056fea2646970667358221220cf61e2e9e56500eb9f275bbbd25293bdf2e64057a1b1ec5a232876218d6fb87e64736f6c634300080b0033",
  "linkReferences": {},
  "deployedLinkReferences": {}
}